{
  "contractName": "Aaruush",
  "abi": [
    {
      "inputs": [],
      "stateMutability": "nonpayable",
      "type": "constructor"
    },
    {
      "anonymous": false,
      "inputs": [
        {
          "indexed": false,
          "internalType": "uint256",
          "name": "prescriptionId",
          "type": "uint256"
        },
        {
          "indexed": false,
          "internalType": "string",
          "name": "userId",
          "type": "string"
        },
        {
          "indexed": false,
          "internalType": "string",
          "name": "description",
          "type": "string"
        },
        {
          "indexed": false,
          "internalType": "enum Aaruush.Dept",
          "name": "dept",
          "type": "uint8"
        }
      ],
      "name": "PrescriptionCreated",
      "type": "event"
    },
    {
      "anonymous": false,
      "inputs": [
        {
          "indexed": false,
          "internalType": "uint256",
          "name": "prescriptionId",
          "type": "uint256"
        }
      ],
      "name": "PrescriptionFulfilled",
      "type": "event"
    },
    {
      "inputs": [],
      "name": "admin",
      "outputs": [
        {
          "internalType": "address",
          "name": "",
          "type": "address"
        }
      ],
      "stateMutability": "view",
      "type": "function"
    },
    {
      "inputs": [
        {
          "internalType": "address",
          "name": "",
          "type": "address"
        }
      ],
      "name": "doctors",
      "outputs": [
        {
          "internalType": "string",
          "name": "id",
          "type": "string"
        },
        {
          "internalType": "string",
          "name": "hospital",
          "type": "string"
        },
        {
          "internalType": "address",
          "name": "doctorAddress",
          "type": "address"
        },
        {
          "internalType": "string",
          "name": "verificationHash",
          "type": "string"
        },
        {
          "internalType": "enum Aaruush.Dept",
          "name": "dept",
          "type": "uint8"
        }
      ],
      "stateMutability": "view",
      "type": "function"
    },
    {
      "inputs": [],
      "name": "prescriptionCount",
      "outputs": [
        {
          "internalType": "uint256",
          "name": "",
          "type": "uint256"
        }
      ],
      "stateMutability": "view",
      "type": "function"
    },
    {
      "inputs": [
        {
          "internalType": "uint256",
          "name": "",
          "type": "uint256"
        }
      ],
      "name": "prescriptions",
      "outputs": [
        {
          "internalType": "uint256",
          "name": "prescriptionId",
          "type": "uint256"
        },
        {
          "internalType": "string",
          "name": "hospital",
          "type": "string"
        },
        {
          "internalType": "string",
          "name": "userId",
          "type": "string"
        },
        {
          "internalType": "uint256",
          "name": "timestamp",
          "type": "uint256"
        },
        {
          "internalType": "string",
          "name": "description",
          "type": "string"
        },
        {
          "internalType": "enum Aaruush.Dept",
          "name": "dept",
          "type": "uint8"
        },
        {
          "internalType": "bool",
          "name": "isFulfilled",
          "type": "bool"
        }
      ],
      "stateMutability": "view",
      "type": "function"
    },
    {
      "inputs": [
        {
          "internalType": "address",
          "name": "",
          "type": "address"
        }
      ],
      "name": "users",
      "outputs": [
        {
          "internalType": "string",
          "name": "id",
          "type": "string"
        },
        {
          "internalType": "string",
          "name": "name",
          "type": "string"
        },
        {
          "internalType": "address",
          "name": "userAddress",
          "type": "address"
        },
        {
          "internalType": "string",
          "name": "verificationHash",
          "type": "string"
        },
        {
          "internalType": "enum Aaruush.Role",
          "name": "role",
          "type": "uint8"
        }
      ],
      "stateMutability": "view",
      "type": "function"
    },
    {
      "inputs": [
        {
          "internalType": "address",
          "name": "_userAddress",
          "type": "address"
        },
        {
          "internalType": "string",
          "name": "_id",
          "type": "string"
        },
        {
          "internalType": "string",
          "name": "name",
          "type": "string"
        },
        {
          "internalType": "string",
          "name": "_verificationHash",
          "type": "string"
        },
        {
          "internalType": "enum Aaruush.Role",
          "name": "_role",
          "type": "uint8"
        }
      ],
      "name": "registerFields",
      "outputs": [],
      "stateMutability": "nonpayable",
      "type": "function"
    },
    {
      "inputs": [
        {
          "internalType": "address",
          "name": "_doctorAddress",
          "type": "address"
        },
        {
          "internalType": "string",
          "name": "_id",
          "type": "string"
        },
        {
          "internalType": "string",
          "name": "_hospital",
          "type": "string"
        },
        {
          "internalType": "string",
          "name": "_verificationHash",
          "type": "string"
        },
        {
          "internalType": "enum Aaruush.Dept",
          "name": "_dept",
          "type": "uint8"
        }
      ],
      "name": "registerDoctor",
      "outputs": [],
      "stateMutability": "nonpayable",
      "type": "function"
    },
    {
      "inputs": [
        {
          "internalType": "address",
          "name": "_userAddress",
          "type": "address"
        },
        {
          "internalType": "string",
          "name": "_id",
          "type": "string"
        },
        {
          "internalType": "string",
          "name": "name",
          "type": "string"
        },
        {
          "internalType": "string",
          "name": "_verificationHash",
          "type": "string"
        },
        {
          "internalType": "enum Aaruush.Role",
          "name": "_role",
          "type": "uint8"
        }
      ],
      "name": "registerReceptionist",
      "outputs": [],
      "stateMutability": "nonpayable",
      "type": "function"
    },
    {
      "inputs": [
        {
          "internalType": "address",
          "name": "_doctorAddress",
          "type": "address"
        }
      ],
      "name": "getDoctorDetails",
      "outputs": [
        {
          "components": [
            {
              "internalType": "string",
              "name": "id",
              "type": "string"
            },
            {
              "internalType": "string",
              "name": "hospital",
              "type": "string"
            },
            {
              "internalType": "address",
              "name": "doctorAddress",
              "type": "address"
            },
            {
              "internalType": "string",
              "name": "verificationHash",
              "type": "string"
            },
            {
              "internalType": "enum Aaruush.Dept",
              "name": "dept",
              "type": "uint8"
            }
          ],
          "internalType": "struct Aaruush.Doctor",
          "name": "",
          "type": "tuple"
        }
      ],
      "stateMutability": "view",
      "type": "function"
    },
    {
      "inputs": [
        {
          "internalType": "address",
          "name": "_userAddress",
          "type": "address"
        }
      ],
      "name": "getUserDetails",
      "outputs": [
        {
          "components": [
            {
              "internalType": "string",
              "name": "id",
              "type": "string"
            },
            {
              "internalType": "string",
              "name": "name",
              "type": "string"
            },
            {
              "internalType": "address",
              "name": "userAddress",
              "type": "address"
            },
            {
              "internalType": "string",
              "name": "verificationHash",
              "type": "string"
            },
            {
              "internalType": "enum Aaruush.Role",
              "name": "role",
              "type": "uint8"
            }
          ],
          "internalType": "struct Aaruush.User",
          "name": "",
          "type": "tuple"
        }
      ],
      "stateMutability": "view",
      "type": "function"
    },
    {
      "inputs": [
        {
          "internalType": "string",
          "name": "_userId",
          "type": "string"
        },
        {
          "internalType": "string",
          "name": "_description",
          "type": "string"
        },
        {
          "internalType": "enum Aaruush.Dept",
          "name": "_dept",
          "type": "uint8"
        },
        {
          "internalType": "string",
          "name": "_hospitalName",
          "type": "string"
        },
        {
          "internalType": "string[]",
          "name": "_medicines",
          "type": "string[]"
        },
        {
          "internalType": "string[]",
          "name": "_documents",
          "type": "string[]"
        },
        {
          "internalType": "string[]",
          "name": "_allergies",
          "type": "string[]"
        }
      ],
      "name": "createPrescription",
      "outputs": [],
      "stateMutability": "nonpayable",
      "type": "function"
    },
    {
      "inputs": [
        {
          "internalType": "uint256",
          "name": "_prescriptionId",
          "type": "uint256"
        }
      ],
      "name": "fulfillPrescription",
      "outputs": [],
      "stateMutability": "nonpayable",
      "type": "function"
    },
    {
      "inputs": [
        {
          "internalType": "uint256",
          "name": "_prescriptionId",
          "type": "uint256"
        }
      ],
      "name": "getPrescription",
      "outputs": [
        {
          "components": [
            {
              "internalType": "uint256",
              "name": "prescriptionId",
              "type": "uint256"
            },
            {
              "internalType": "string",
              "name": "hospital",
              "type": "string"
            },
            {
              "internalType": "string",
              "name": "userId",
              "type": "string"
            },
            {
              "internalType": "uint256",
              "name": "timestamp",
              "type": "uint256"
            },
            {
              "internalType": "string",
              "name": "description",
              "type": "string"
            },
            {
              "internalType": "enum Aaruush.Dept",
              "name": "dept",
              "type": "uint8"
            },
            {
              "internalType": "string[]",
              "name": "medicines",
              "type": "string[]"
            },
            {
              "internalType": "string[]",
              "name": "documents",
              "type": "string[]"
            },
            {
              "internalType": "string[]",
              "name": "allergies",
              "type": "string[]"
            },
            {
              "internalType": "bool",
              "name": "isFulfilled",
              "type": "bool"
            }
          ],
          "internalType": "struct Aaruush.Prescription",
          "name": "",
          "type": "tuple"
        }
      ],
      "stateMutability": "view",
      "type": "function"
    }
  ],
  "bytecode": "0x60806040525f600155348015610013575f80fd5b505f80546001600160a01b031916331790556120ea806100325f395ff3fe608060405234801561000f575f80fd5b50600436106100cb575f3560e01c8063a9583c2211610088578063bab90dbd11610063578063bab90dbd146101ba578063cc3d967b146101da578063e7111704146101ed578063f851a44014610200575f80fd5b8063a9583c221461017d578063b577dc2614610190578063b6558498146101a3575f80fd5b806331dfc91b146100cf5780633f11bcb9146100fe578063686e9062146101135780636f16af10146101265780638e86643d14610146578063a87430ba14610159575b5f80fd5b6100e26100dd366004611828565b61022a565b6040516100f597969594939291906118bf565b60405180910390f35b61011161010c366004611a91565b6103fd565b005b610111610121366004611828565b610643565b610139610134366004611828565b6107d0565b6040516100f59190611be3565b610111610154366004611cf6565b610cda565b61016c610167366004611d9d565b610eb0565b6040516100f5959493929190611dbd565b61016c61018b366004611d9d565b611081565b61011161019e366004611cf6565b61109b565b6101ac60015481565b6040519081526020016100f5565b6101cd6101c8366004611d9d565b611246565b6040516100f59190611e20565b6101cd6101e8366004611d9d565b6114f5565b6101116101fb366004611cf6565b6115b2565b5f54610212906001600160a01b031681565b6040516001600160a01b0390911681526020016100f5565b60046020525f90815260409020805460018201805491929161024b90611ead565b80601f016020809104026020016040519081016040528092919081815260200182805461027790611ead565b80156102c25780601f10610299576101008083540402835291602001916102c2565b820191905f5260205f20905b8154815290600101906020018083116102a557829003601f168201915b5050505050908060020180546102d790611ead565b80601f016020809104026020016040519081016040528092919081815260200182805461030390611ead565b801561034e5780601f106103255761010080835404028352916020019161034e565b820191905f5260205f20905b81548152906001019060200180831161033157829003601f168201915b50505050509080600301549080600401805461036990611ead565b80601f016020809104026020016040519081016040528092919081815260200182805461039590611ead565b80156103e05780601f106103b7576101008083540402835291602001916103e0565b820191905f5260205f20905b8154815290600101906020018083116103c357829003601f168201915b505050506005830154600990930154919260ff9081169216905087565b335f908152600360205260409020600201546001906001600160a01b03166104405760405162461bcd60e51b815260040161043790611ee5565b60405180910390fd5b80600281111561045257610452611882565b335f9081526003602052604090206004015460ff16600281111561047857610478611882565b146104955760405162461bcd60e51b815260040161043790611f15565b60018054905f6104a483611f41565b919050555060405180610140016040528060015481526020018681526020018981526020014281526020018881526020018760028111156104e7576104e7611882565b815260208082018790526040808301879052606083018690525f60809093018390526001805484526004835292208351815590830151909182019061052c9082611fb3565b50604082015160028201906105419082611fb3565b5060608201516003820155608082015160048201906105609082611fb3565b5060a082015160058201805460ff1916600183600281111561058457610584611882565b021790555060c082015180516105a4916006840191602090910190611708565b5060e082015180516105c0916007840191602090910190611708565b5061010082015180516105dd916008840191602090910190611708565b5061012091909101516009909101805460ff19169115159190911790556001546040517f9e91634be29c373e8ab551c0dbac2856c450232fdab72b185f03bd57619e2d3691610631918b908b908b9061206f565b60405180910390a15050505050505050565b335f908152600360205260408120600201546001600160a01b031661067a5760405162461bcd60e51b815260040161043790611ee5565b80600281111561068c5761068c611882565b335f9081526003602052604090206004015460ff1660028111156106b2576106b2611882565b146106cf5760405162461bcd60e51b815260040161043790611f15565b5f828152600460205260408120805490910361072d5760405162461bcd60e51b815260206004820152601b60248201527f507265736372697074696f6e20646f6573206e6f7420657869737400000000006044820152606401610437565b600981015460ff16156107825760405162461bcd60e51b815260206004820152601e60248201527f507265736372697074696f6e20616c72656164792066756c66696c6c656400006044820152606401610437565b60098101805460ff191660011790556040517f9d80387d31123dbcc3f16d095d996aa10533e74066b1d66d00200d296af28759906107c39085815260200190565b60405180910390a1505050565b6107d861175c565b5f8281526004602052604081205490036108345760405162461bcd60e51b815260206004820152601b60248201527f507265736372697074696f6e20646f6573206e6f7420657869737400000000006044820152606401610437565b60045f8381526020019081526020015f20604051806101400160405290815f820154815260200160018201805461086a90611ead565b80601f016020809104026020016040519081016040528092919081815260200182805461089690611ead565b80156108e15780601f106108b8576101008083540402835291602001916108e1565b820191905f5260205f20905b8154815290600101906020018083116108c457829003601f168201915b505050505081526020016002820180546108fa90611ead565b80601f016020809104026020016040519081016040528092919081815260200182805461092690611ead565b80156109715780601f1061094857610100808354040283529160200191610971565b820191905f5260205f20905b81548152906001019060200180831161095457829003601f168201915b505050505081526020016003820154815260200160048201805461099490611ead565b80601f01602080910402602001604051908101604052809291908181526020018280546109c090611ead565b8015610a0b5780601f106109e257610100808354040283529160200191610a0b565b820191905f5260205f20905b8154815290600101906020018083116109ee57829003601f168201915b5050509183525050600582015460209091019060ff166002811115610a3257610a32611882565b6002811115610a4357610a43611882565b815260200160068201805480602002602001604051908101604052809291908181526020015f905b82821015610b13578382905f5260205f20018054610a8890611ead565b80601f0160208091040260200160405190810160405280929190818152602001828054610ab490611ead565b8015610aff5780601f10610ad657610100808354040283529160200191610aff565b820191905f5260205f20905b815481529060010190602001808311610ae257829003601f168201915b505050505081526020019060010190610a6b565b50505050815260200160078201805480602002602001604051908101604052809291908181526020015f905b82821015610be7578382905f5260205f20018054610b5c90611ead565b80601f0160208091040260200160405190810160405280929190818152602001828054610b8890611ead565b8015610bd35780601f10610baa57610100808354040283529160200191610bd3565b820191905f5260205f20905b815481529060010190602001808311610bb657829003601f168201915b505050505081526020019060010190610b3f565b50505050815260200160088201805480602002602001604051908101604052809291908181526020015f905b82821015610cbb578382905f5260205f20018054610c3090611ead565b80601f0160208091040260200160405190810160405280929190818152602001828054610c5c90611ead565b8015610ca75780601f10610c7e57610100808354040283529160200191610ca7565b820191905f5260205f20905b815481529060010190602001808311610c8a57829003601f168201915b505050505081526020019060010190610c13565b505050908252506009919091015460ff16151560209091015292915050565b335f9081526003602052604090206002908101546001600160a01b0316610d135760405162461bcd60e51b815260040161043790611ee5565b806002811115610d2557610d25611882565b335f9081526003602052604090206004015460ff166002811115610d4b57610d4b611882565b14610d685760405162461bcd60e51b815260040161043790611f15565b6001600160a01b038681165f908152600360205260409020600201541615610dc85760405162461bcd60e51b81526020600482015260136024820152725573657220616c72656164792065786973747360681b6044820152606401610437565b6040518060a00160405280868152602001858152602001876001600160a01b03168152602001848152602001836002811115610e0657610e06611882565b90526001600160a01b0387165f90815260036020526040902081518190610e2d9082611fb3565b5060208201516001820190610e429082611fb3565b5060408201516002820180546001600160a01b0319166001600160a01b0390921691909117905560608201516003820190610e7d9082611fb3565b50608082015160048201805460ff19166001836002811115610ea157610ea1611882565b02179055505050505050505050565b60036020525f9081526040902080548190610eca90611ead565b80601f0160208091040260200160405190810160405280929190818152602001828054610ef690611ead565b8015610f415780601f10610f1857610100808354040283529160200191610f41565b820191905f5260205f20905b815481529060010190602001808311610f2457829003601f168201915b505050505090806001018054610f5690611ead565b80601f0160208091040260200160405190810160405280929190818152602001828054610f8290611ead565b8015610fcd5780601f10610fa457610100808354040283529160200191610fcd565b820191905f5260205f20905b815481529060010190602001808311610fb057829003601f168201915b505050600284015460038501805494956001600160a01b03909216949193509150610ff790611ead565b80601f016020809104026020016040519081016040528092919081815260200182805461102390611ead565b801561106e5780601f106110455761010080835404028352916020019161106e565b820191905f5260205f20905b81548152906001019060200180831161105157829003601f168201915b5050506004909301549192505060ff1685565b60026020525f9081526040902080548190610eca90611ead565b5f546001600160a01b031633146110ff5760405162461bcd60e51b815260206004820152602260248201527f4f6e6c792061646d696e2063616e20706572666f726d2074686973206163746960448201526137b760f11b6064820152608401610437565b6001600160a01b038581165f90815260036020526040902060020154161561115f5760405162461bcd60e51b81526020600482015260136024820152725573657220616c72656164792065786973747360681b6044820152606401610437565b6040518060a00160405280858152602001848152602001866001600160a01b0316815260200183815260200182600281111561119d5761119d611882565b90526001600160a01b0386165f908152600360205260409020815181906111c49082611fb3565b50602082015160018201906111d99082611fb3565b5060408201516002820180546001600160a01b0319166001600160a01b03909216919091179055606082015160038201906112149082611fb3565b50608082015160048201805460ff1916600183600281111561123857611238611882565b021790555050505050505050565b6112736040805160a0810182526060808252602082018190525f9282018390528082015290608082015290565b6001600160a01b038281165f9081526002602081905260409091200154166112d55760405162461bcd60e51b8152602060048201526015602482015274111bd8dd1bdc88191bd95cc81b9bdd08195e1a5cdd605a1b6044820152606401610437565b6001600160a01b0382165f9081526002602052604090819020815160a0810190925280548290829061130690611ead565b80601f016020809104026020016040519081016040528092919081815260200182805461133290611ead565b801561137d5780601f106113545761010080835404028352916020019161137d565b820191905f5260205f20905b81548152906001019060200180831161136057829003601f168201915b5050505050815260200160018201805461139690611ead565b80601f01602080910402602001604051908101604052809291908181526020018280546113c290611ead565b801561140d5780601f106113e45761010080835404028352916020019161140d565b820191905f5260205f20905b8154815290600101906020018083116113f057829003601f168201915b505050918352505060028201546001600160a01b0316602082015260038201805460409092019161143d90611ead565b80601f016020809104026020016040519081016040528092919081815260200182805461146990611ead565b80156114b45780601f1061148b576101008083540402835291602001916114b4565b820191905f5260205f20905b81548152906001019060200180831161149757829003601f168201915b5050509183525050600482015460209091019060ff1660028111156114db576114db611882565b60028111156114ec576114ec611882565b90525092915050565b6115226040805160a0810182526060808252602082018190525f9282018390528082015290608082015290565b6001600160a01b038281165f90815260036020526040902060020154166115815760405162461bcd60e51b8152602060048201526013602482015272155cd95c88191bd95cc81b9bdd08195e1a5cdd606a1b6044820152606401610437565b6001600160a01b0382165f9081526003602052604090819020815160a0810190925280548290829061130690611ead565b335f9081526003602052604090206002908101546001600160a01b03166115eb5760405162461bcd60e51b815260040161043790611ee5565b8060028111156115fd576115fd611882565b335f9081526003602052604090206004015460ff16600281111561162357611623611882565b146116405760405162461bcd60e51b815260040161043790611f15565b6001600160a01b038681165f908152600260208190526040909120015416156116a35760405162461bcd60e51b8152602060048201526015602482015274446f63746f7220616c72656164792065786973747360581b6044820152606401610437565b6040518060a00160405280868152602001858152602001876001600160a01b031681526020018481526020018360028111156116e1576116e1611882565b90526001600160a01b0387165f90815260026020526040902081518190610e2d9082611fb3565b828054828255905f5260205f2090810192821561174c579160200282015b8281111561174c578251829061173c9082611fb3565b5091602001919060010190611726565b506117589291506117be565b5090565b6040518061014001604052805f815260200160608152602001606081526020015f8152602001606081526020015f600281111561179b5761179b611882565b81526020016060815260200160608152602001606081526020015f151581525090565b80821115611758575f6117d182826117da565b506001016117be565b5080546117e690611ead565b5f825580601f106117f5575050565b601f0160209004905f5260205f20908101906118119190611814565b50565b5b80821115611758575f8155600101611815565b5f60208284031215611838575f80fd5b5035919050565b5f81518084525f5b8181101561186357602081850181015186830182015201611847565b505f602082860101526020601f19601f83011685010191505092915050565b634e487b7160e01b5f52602160045260245ffd5b6003811061181157634e487b7160e01b5f52602160045260245ffd5b6118bb81611896565b9052565b87815260e060208201525f6118d760e083018961183f565b82810360408401526118e9818961183f565b90508660608401528281036080840152611903818761183f565b91505061190f84611896565b8360a083015282151560c083015298975050505050505050565b634e487b7160e01b5f52604160045260245ffd5b604051601f8201601f1916810167ffffffffffffffff8111828210171561196657611966611929565b604052919050565b5f82601f83011261197d575f80fd5b813567ffffffffffffffff81111561199757611997611929565b6119aa601f8201601f191660200161193d565b8181528460208386010111156119be575f80fd5b816020850160208301375f918101602001919091529392505050565b60038110611811575f80fd5b80356119f1816119da565b919050565b5f82601f830112611a05575f80fd5b8135602067ffffffffffffffff80831115611a2257611a22611929565b8260051b611a3183820161193d565b9384528581018301938381019088861115611a4a575f80fd5b84880192505b85831015611a8557823584811115611a67575f8081fd5b611a758a87838c010161196e565b8352509184019190840190611a50565b98975050505050505050565b5f805f805f805f60e0888a031215611aa7575f80fd5b873567ffffffffffffffff80821115611abe575f80fd5b611aca8b838c0161196e565b985060208a0135915080821115611adf575f80fd5b611aeb8b838c0161196e565b9750611af960408b016119e6565b965060608a0135915080821115611b0e575f80fd5b611b1a8b838c0161196e565b955060808a0135915080821115611b2f575f80fd5b611b3b8b838c016119f6565b945060a08a0135915080821115611b50575f80fd5b611b5c8b838c016119f6565b935060c08a0135915080821115611b71575f80fd5b50611b7e8a828b016119f6565b91505092959891949750929550565b5f82825180855260208086019550808260051b8401018186015f5b84811015611bd657601f19868403018952611bc483835161183f565b98840198925090830190600101611ba8565b5090979650505050505050565b60208152815160208201525f6020830151610140806040850152611c0b61016085018361183f565b91506040850151601f1980868503016060870152611c29848361183f565b93506060870151608087015260808701519150808685030160a0870152611c50848361183f565b935060a08701519150611c6660c08701836118b2565b60c08701519150808685030160e0870152611c818483611b8d565b935060e08701519150610100818786030181880152611ca08584611b8d565b945080880151925050610120818786030181880152611cbf8584611b8d565b94508088015192505050611cd68286018215159052565b5090949350505050565b80356001600160a01b03811681146119f1575f80fd5b5f805f805f60a08688031215611d0a575f80fd5b611d1386611ce0565b9450602086013567ffffffffffffffff80821115611d2f575f80fd5b611d3b89838a0161196e565b95506040880135915080821115611d50575f80fd5b611d5c89838a0161196e565b94506060880135915080821115611d71575f80fd5b50611d7e8882890161196e565b9250506080860135611d8f816119da565b809150509295509295909350565b5f60208284031215611dad575f80fd5b611db682611ce0565b9392505050565b60a081525f611dcf60a083018861183f565b8281036020840152611de1818861183f565b6001600160a01b038716604085015283810360608501529050611e04818661183f565b915050611e1083611896565b8260808301529695505050505050565b602081525f825160a06020840152611e3b60c084018261183f565b90506020840151601f1980858403016040860152611e59838361183f565b60408701516001600160a01b0316606087810191909152870151868203909201608087015292509050611e8c828261183f565b9150506080840151611e9d81611896565b60a0939093019290925250919050565b600181811c90821680611ec157607f821691505b602082108103611edf57634e487b7160e01b5f52602260045260245ffd5b50919050565b602080825260169082015275155cd95c881a5cc81b9bdd081c9959da5cdd195c995960521b604082015260600190565b6020808252601290820152710aae6cae440e4ded8ca40dad2e6dac2e8c6d60731b604082015260600190565b5f60018201611f5e57634e487b7160e01b5f52601160045260245ffd5b5060010190565b601f821115611fae575f81815260208120601f850160051c81016020861015611f8b5750805b601f850160051c820191505b81811015611faa57828155600101611f97565b5050505b505050565b815167ffffffffffffffff811115611fcd57611fcd611929565b611fe181611fdb8454611ead565b84611f65565b602080601f831160018114612014575f8415611ffd5750858301515b5f19600386901b1c1916600185901b178555611faa565b5f85815260208120601f198616915b8281101561204257888601518255948401946001909101908401612023565b508582101561205f57878501515f19600388901b60f8161c191681555b5050505050600190811b01905550565b848152608060208201525f612087608083018661183f565b8281036040840152612099818661183f565b9150506120a583611896565b8260608301529594505050505056fea26469706673582212201278c410bb28e74f4c0f59dec8a941d7db44aa8f08028c7ef024d3a3d5d228d564736f6c63430008150033",
  "immutableReferences": {},
  "source": "// SPDX-License-Identifier: MIT\r\npragma solidity ^0.8.21;\r\n\r\ncontract Aaruush {\r\n    enum Dept { Cardiology, Psychiatry, General }\r\n    enum Role { Pharmacy, Receptionist, Hospital } \r\n\r\n    struct Doctor {\r\n        string id;   \r\n        string hospital;             // MongoDB _id reference\r\n        address doctorAddress;    \r\n        string verificationHash;\r\n        Dept dept;                // Department of the doctor\r\n    }\r\n\r\n    struct User {                 // Combined struct for Pharmacy and Receptionist\r\n        string id;   \r\n        string name;             // MongoDB _id reference\r\n        address userAddress;\r\n        string verificationHash;\r\n        Role role;                // Role (Pharmacy or Receptionist)\r\n    }\r\n\r\n    struct Prescription {\r\n        uint256 prescriptionId;\r\n        string hospital;  \r\n        string userId;            // Acts as a unique id from MongoDB\r\n        uint256 timestamp;        // Prescription creation timestamp\r\n        string description;       // Prescription description\r\n        Dept dept;\r\n        string[] medicines;       // List of medicines\r\n        string[] documents;       // Related documents\r\n        string[] allergies;       // Allergies information\r\n        bool isFulfilled;         // Status if the prescription has been fulfilled\r\n    }\r\n\r\n    address public admin;                        // Hospital admin\r\n    uint256 public prescriptionCount = 0;        // Count of prescriptions\r\n    mapping(address => Doctor) public doctors;   // Mapping for doctors\r\n    mapping(address => User) public users;       // Mapping for pharmacies, receptionists and Hospitals (combined into 'users')\r\n    mapping(uint256 => Prescription) public prescriptions; // Mapping for prescriptions\r\n\r\n    event PrescriptionCreated(uint256 prescriptionId, string userId, string description, Dept dept);\r\n    event PrescriptionFulfilled(uint256 prescriptionId);\r\n\r\n    modifier onlyAdmin() {\r\n        require(msg.sender == admin, \"Only admin can perform this action\");\r\n        _;\r\n    }\r\n\r\n    modifier onlyVerifiedDoctor() {\r\n        require(doctors[msg.sender].doctorAddress != address(0), \"User is not a verified doctor\");\r\n        _;\r\n    }\r\n\r\n    modifier onlyVerifiedUser(Role _role) {\r\n        require(users[msg.sender].userAddress != address(0), \"User is not registered\");\r\n        require(users[msg.sender].role == _role, \"User role mismatch\");\r\n        _;\r\n    }\r\n\r\n    constructor() {\r\n        admin = msg.sender;\r\n    }\r\n\r\n    // Register Hospital and Pharmacy\r\n    function registerFields(\r\n        address _userAddress, \r\n        string memory _id, \r\n        string memory name,\r\n        string memory _verificationHash, \r\n        Role _role\r\n    ) public onlyAdmin {\r\n        require(users[_userAddress].userAddress == address(0), \"User already exists\");\r\n\r\n        users[_userAddress] = User({\r\n            id: _id,\r\n            name: name,\r\n            userAddress: _userAddress,\r\n            verificationHash: _verificationHash,\r\n            role: _role\r\n        });\r\n    }\r\n\r\n    // Register a doctor\r\n    function registerDoctor(\r\n        address _doctorAddress, \r\n        string memory _id, \r\n        string memory _hospital,\r\n        string memory _verificationHash, \r\n        Dept _dept\r\n    ) public onlyVerifiedUser(Role.Hospital) {\r\n        require(doctors[_doctorAddress].doctorAddress == address(0), \"Doctor already exists\");\r\n\r\n        doctors[_doctorAddress] = Doctor({\r\n            id: _id,\r\n            hospital: _hospital,\r\n            doctorAddress: _doctorAddress,\r\n            verificationHash: _verificationHash,\r\n            dept: _dept\r\n        });\r\n    }\r\n\r\n    //register Receptionist\r\n    function registerReceptionist(\r\n        address _userAddress, \r\n        string memory _id, \r\n        string memory name,\r\n        string memory _verificationHash, \r\n        Role _role\r\n    ) public onlyVerifiedUser(Role.Hospital)  {\r\n        require(users[_userAddress].userAddress == address(0), \"User already exists\");\r\n\r\n        users[_userAddress] = User({\r\n            id: _id,\r\n            name: name,\r\n            userAddress: _userAddress,\r\n            verificationHash: _verificationHash,\r\n            role: _role\r\n        });\r\n    }\r\n\r\n    // Get doctor details\r\n    function getDoctorDetails(address _doctorAddress) public view returns (Doctor memory) {\r\n        require(doctors[_doctorAddress].doctorAddress != address(0), \"Doctor does not exist\");\r\n        return doctors[_doctorAddress];\r\n    }\r\n\r\n    // Get user details\r\n    function getUserDetails(address _userAddress) public view returns (User memory) {\r\n        require(users[_userAddress].userAddress != address(0), \"User does not exist\");\r\n        return users[_userAddress];\r\n    }\r\n\r\n    // Receptionist creates or updates a prescription\r\n    function createPrescription(\r\n        string memory _userId, \r\n        string memory _description, \r\n        Dept _dept,\r\n        string memory _hospitalName,\r\n        string[] memory _medicines, \r\n        string[] memory _documents, \r\n        string[] memory _allergies\r\n    ) public onlyVerifiedUser(Role.Receptionist) {\r\n        prescriptionCount++;\r\n        prescriptions[prescriptionCount] = Prescription({\r\n            prescriptionId: prescriptionCount,\r\n            hospital: _hospitalName,\r\n            userId: _userId,\r\n            timestamp: block.timestamp,\r\n            description: _description,\r\n            dept: _dept,\r\n            medicines: _medicines,\r\n            documents: _documents,\r\n            allergies: _allergies,\r\n            isFulfilled: false\r\n        });\r\n        emit PrescriptionCreated(prescriptionCount, _userId, _description, _dept);\r\n    }\r\n\r\n    // Pharmacy fulfills a prescription\r\n    function fulfillPrescription(uint256 _prescriptionId) public onlyVerifiedUser(Role.Pharmacy) {\r\n        Prescription storage prescription = prescriptions[_prescriptionId];\r\n        require(prescription.prescriptionId != 0, \"Prescription does not exist\");\r\n        require(!prescription.isFulfilled, \"Prescription already fulfilled\");\r\n\r\n        prescription.isFulfilled = true;\r\n        emit PrescriptionFulfilled(_prescriptionId);\r\n    }\r\n\r\n    // Get prescription details by ID\r\n    function getPrescription(uint256 _prescriptionId) public view returns (Prescription memory) {\r\n        require(prescriptions[_prescriptionId].prescriptionId != 0, \"Prescription does not exist\");\r\n        return prescriptions[_prescriptionId];\r\n    }\r\n}",
  "sourcePath": "C:\\CODING\\Hack Summit\\Hack-Summit-5.O\\contracts\\Hospital.sol",
  "compiler": {
    "name": "solc",
    "version": "0.8.21+commit.d9974bed.Emscripten.clang"
  },
  "schemaVersion": "3.4.16",
  "updatedAt": "2024-10-06T09:08:11.717Z",
  "devdoc": {
    "kind": "dev",
    "methods": {},
    "version": 1
  },
  "userdoc": {
    "kind": "user",
    "methods": {},
    "version": 1
  }
}