{
  "contractName": "Hospital",
  "abi": [
    {
      "inputs": [],
      "stateMutability": "nonpayable",
      "type": "constructor"
    },
    {
      "anonymous": false,
      "inputs": [
        {
          "indexed": false,
          "internalType": "uint256",
          "name": "prescriptionId",
          "type": "uint256"
        },
        {
          "indexed": false,
          "internalType": "string",
          "name": "userId",
          "type": "string"
        },
        {
          "indexed": false,
          "internalType": "string",
          "name": "description",
          "type": "string"
        },
        {
          "indexed": false,
          "internalType": "enum Hospital.Dept",
          "name": "dept",
          "type": "uint8"
        }
      ],
      "name": "PrescriptionCreated",
      "type": "event"
    },
    {
      "anonymous": false,
      "inputs": [
        {
          "indexed": false,
          "internalType": "uint256",
          "name": "prescriptionId",
          "type": "uint256"
        }
      ],
      "name": "PrescriptionFulfilled",
      "type": "event"
    },
    {
      "inputs": [],
      "name": "admin",
      "outputs": [
        {
          "internalType": "address",
          "name": "",
          "type": "address"
        }
      ],
      "stateMutability": "view",
      "type": "function",
      "constant": true
    },
    {
      "inputs": [
        {
          "internalType": "address",
          "name": "",
          "type": "address"
        }
      ],
      "name": "doctors",
      "outputs": [
        {
          "internalType": "string",
          "name": "id",
          "type": "string"
        },
        {
          "internalType": "string",
          "name": "hospital",
          "type": "string"
        },
        {
          "internalType": "address",
          "name": "doctorAddress",
          "type": "address"
        },
        {
          "internalType": "string",
          "name": "verificationHash",
          "type": "string"
        },
        {
          "internalType": "enum Hospital.Dept",
          "name": "dept",
          "type": "uint8"
        }
      ],
      "stateMutability": "view",
      "type": "function",
      "constant": true
    },
    {
      "inputs": [],
      "name": "prescriptionCount",
      "outputs": [
        {
          "internalType": "uint256",
          "name": "",
          "type": "uint256"
        }
      ],
      "stateMutability": "view",
      "type": "function",
      "constant": true
    },
    {
      "inputs": [
        {
          "internalType": "uint256",
          "name": "",
          "type": "uint256"
        }
      ],
      "name": "prescriptions",
      "outputs": [
        {
          "internalType": "uint256",
          "name": "prescriptionId",
          "type": "uint256"
        },
        {
          "internalType": "string",
          "name": "hospital",
          "type": "string"
        },
        {
          "internalType": "string",
          "name": "userId",
          "type": "string"
        },
        {
          "internalType": "uint256",
          "name": "timestamp",
          "type": "uint256"
        },
        {
          "internalType": "string",
          "name": "description",
          "type": "string"
        },
        {
          "internalType": "enum Hospital.Dept",
          "name": "dept",
          "type": "uint8"
        },
        {
          "internalType": "bool",
          "name": "isFulfilled",
          "type": "bool"
        }
      ],
      "stateMutability": "view",
      "type": "function",
      "constant": true
    },
    {
      "inputs": [
        {
          "internalType": "address",
          "name": "",
          "type": "address"
        }
      ],
      "name": "users",
      "outputs": [
        {
          "internalType": "string",
          "name": "id",
          "type": "string"
        },
        {
          "internalType": "string",
          "name": "name",
          "type": "string"
        },
        {
          "internalType": "address",
          "name": "userAddress",
          "type": "address"
        },
        {
          "internalType": "string",
          "name": "verificationHash",
          "type": "string"
        },
        {
          "internalType": "enum Hospital.Role",
          "name": "role",
          "type": "uint8"
        }
      ],
      "stateMutability": "view",
      "type": "function",
      "constant": true
    },
    {
      "inputs": [
        {
          "internalType": "address",
          "name": "_userAddress",
          "type": "address"
        },
        {
          "internalType": "string",
          "name": "_id",
          "type": "string"
        },
        {
          "internalType": "string",
          "name": "name",
          "type": "string"
        },
        {
          "internalType": "string",
          "name": "_verificationHash",
          "type": "string"
        },
        {
          "internalType": "enum Hospital.Role",
          "name": "_role",
          "type": "uint8"
        }
      ],
      "name": "registerFields",
      "outputs": [],
      "stateMutability": "nonpayable",
      "type": "function"
    },
    {
      "inputs": [
        {
          "internalType": "address",
          "name": "_doctorAddress",
          "type": "address"
        },
        {
          "internalType": "string",
          "name": "_id",
          "type": "string"
        },
        {
          "internalType": "string",
          "name": "_hospital",
          "type": "string"
        },
        {
          "internalType": "string",
          "name": "_verificationHash",
          "type": "string"
        },
        {
          "internalType": "enum Hospital.Dept",
          "name": "_dept",
          "type": "uint8"
        }
      ],
      "name": "registerDoctor",
      "outputs": [],
      "stateMutability": "nonpayable",
      "type": "function"
    },
    {
      "inputs": [
        {
          "internalType": "address",
          "name": "_userAddress",
          "type": "address"
        },
        {
          "internalType": "string",
          "name": "_id",
          "type": "string"
        },
        {
          "internalType": "string",
          "name": "name",
          "type": "string"
        },
        {
          "internalType": "string",
          "name": "_verificationHash",
          "type": "string"
        },
        {
          "internalType": "enum Hospital.Role",
          "name": "_role",
          "type": "uint8"
        }
      ],
      "name": "registerReceptionist",
      "outputs": [],
      "stateMutability": "nonpayable",
      "type": "function"
    },
    {
      "inputs": [
        {
          "internalType": "address",
          "name": "_doctorAddress",
          "type": "address"
        }
      ],
      "name": "getDoctorDetails",
      "outputs": [
        {
          "components": [
            {
              "internalType": "string",
              "name": "id",
              "type": "string"
            },
            {
              "internalType": "string",
              "name": "hospital",
              "type": "string"
            },
            {
              "internalType": "address",
              "name": "doctorAddress",
              "type": "address"
            },
            {
              "internalType": "string",
              "name": "verificationHash",
              "type": "string"
            },
            {
              "internalType": "enum Hospital.Dept",
              "name": "dept",
              "type": "uint8"
            }
          ],
          "internalType": "struct Hospital.Doctor",
          "name": "",
          "type": "tuple"
        }
      ],
      "stateMutability": "view",
      "type": "function",
      "constant": true
    },
    {
      "inputs": [
        {
          "internalType": "address",
          "name": "_userAddress",
          "type": "address"
        }
      ],
      "name": "getUserDetails",
      "outputs": [
        {
          "components": [
            {
              "internalType": "string",
              "name": "id",
              "type": "string"
            },
            {
              "internalType": "string",
              "name": "name",
              "type": "string"
            },
            {
              "internalType": "address",
              "name": "userAddress",
              "type": "address"
            },
            {
              "internalType": "string",
              "name": "verificationHash",
              "type": "string"
            },
            {
              "internalType": "enum Hospital.Role",
              "name": "role",
              "type": "uint8"
            }
          ],
          "internalType": "struct Hospital.User",
          "name": "",
          "type": "tuple"
        }
      ],
      "stateMutability": "view",
      "type": "function",
      "constant": true
    },
    {
      "inputs": [
        {
          "internalType": "string",
          "name": "_userId",
          "type": "string"
        },
        {
          "internalType": "string",
          "name": "_description",
          "type": "string"
        },
        {
          "internalType": "enum Hospital.Dept",
          "name": "_dept",
          "type": "uint8"
        },
        {
          "internalType": "string",
          "name": "_hospitalName",
          "type": "string"
        },
        {
          "internalType": "string[]",
          "name": "_medicines",
          "type": "string[]"
        },
        {
          "internalType": "string[]",
          "name": "_documents",
          "type": "string[]"
        },
        {
          "internalType": "string[]",
          "name": "_allergies",
          "type": "string[]"
        }
      ],
      "name": "createPrescription",
      "outputs": [],
      "stateMutability": "nonpayable",
      "type": "function"
    },
    {
      "inputs": [
        {
          "internalType": "uint256",
          "name": "_prescriptionId",
          "type": "uint256"
        }
      ],
      "name": "fulfillPrescription",
      "outputs": [],
      "stateMutability": "nonpayable",
      "type": "function"
    },
    {
      "inputs": [
        {
          "internalType": "uint256",
          "name": "_prescriptionId",
          "type": "uint256"
        }
      ],
      "name": "getPrescription",
      "outputs": [
        {
          "components": [
            {
              "internalType": "uint256",
              "name": "prescriptionId",
              "type": "uint256"
            },
            {
              "internalType": "string",
              "name": "hospital",
              "type": "string"
            },
            {
              "internalType": "string",
              "name": "userId",
              "type": "string"
            },
            {
              "internalType": "uint256",
              "name": "timestamp",
              "type": "uint256"
            },
            {
              "internalType": "string",
              "name": "description",
              "type": "string"
            },
            {
              "internalType": "enum Hospital.Dept",
              "name": "dept",
              "type": "uint8"
            },
            {
              "internalType": "string[]",
              "name": "medicines",
              "type": "string[]"
            },
            {
              "internalType": "string[]",
              "name": "documents",
              "type": "string[]"
            },
            {
              "internalType": "string[]",
              "name": "allergies",
              "type": "string[]"
            },
            {
              "internalType": "bool",
              "name": "isFulfilled",
              "type": "bool"
            }
          ],
          "internalType": "struct Hospital.Prescription",
          "name": "",
          "type": "tuple"
        }
      ],
      "stateMutability": "view",
      "type": "function",
      "constant": true
    }
  ],
  "bytecode": "0x60806040525f600155348015610013575f80fd5b50335f806101000a81548173ffffffffffffffffffffffffffffffffffffffff021916908373ffffffffffffffffffffffffffffffffffffffff160217905550613a70806100605f395ff3fe608060405234801561000f575f80fd5b50600436106100cd575f3560e01c8063a9583c221161008a578063bab90dbd11610064578063bab90dbd1461022d578063cc3d967b1461025d578063e71117041461028d578063f851a440146102a9576100cd565b8063a9583c22146101bf578063b577dc26146101f3578063b65584981461020f576100cd565b806331dfc91b146100d15780633f11bcb914610107578063686e9062146101235780636f16af101461013f5780638e86643d1461016f578063a87430ba1461018b575b5f80fd5b6100eb60048036038101906100e6919061265a565b6102c7565b6040516100fe97969594939291906127ab565b60405180910390f35b610121600480360381019061011c9190612a5e565b6104af565b005b61013d6004803603810190610138919061265a565b6107fd565b005b6101596004803603810190610154919061265a565b610a7f565b6040516101669190612dcd565b60405180910390f35b61018960048036038101906101849190612e6a565b610f93565b005b6101a560048036038101906101a09190612f35565b61132d565b6040516101b6959493929190612fb5565b60405180910390f35b6101d960048036038101906101d49190612f35565b61151c565b6040516101ea95949392919061301b565b60405180910390f35b61020d60048036038101906102089190612e6a565b61170b565b005b6102176119b0565b6040516102249190613081565b60405180910390f35b61024760048036038101906102429190612f35565b6119b6565b604051610254919061312a565b60405180910390f35b61027760048036038101906102729190612f35565b611d18565b60405161028491906131da565b60405180910390f35b6102a760048036038101906102a291906131fa565b61207a565b005b6102b1612414565b6040516102be91906132c5565b60405180910390f35b6004602052805f5260405f205f91509050805f0154908060010180546102ec9061330b565b80601f01602080910402602001604051908101604052809291908181526020018280546103189061330b565b80156103635780601f1061033a57610100808354040283529160200191610363565b820191905f5260205f20905b81548152906001019060200180831161034657829003601f168201915b5050505050908060020180546103789061330b565b80601f01602080910402602001604051908101604052809291908181526020018280546103a49061330b565b80156103ef5780601f106103c6576101008083540402835291602001916103ef565b820191905f5260205f20905b8154815290600101906020018083116103d257829003601f168201915b50505050509080600301549080600401805461040a9061330b565b80601f01602080910402602001604051908101604052809291908181526020018280546104369061330b565b80156104815780601f1061045857610100808354040283529160200191610481565b820191905f5260205f20905b81548152906001019060200180831161046457829003601f168201915b505050505090806005015f9054906101000a900460ff1690806009015f9054906101000a900460ff16905087565b60015f73ffffffffffffffffffffffffffffffffffffffff1660035f3373ffffffffffffffffffffffffffffffffffffffff1673ffffffffffffffffffffffffffffffffffffffff1681526020019081526020015f206002015f9054906101000a900473ffffffffffffffffffffffffffffffffffffffff1673ffffffffffffffffffffffffffffffffffffffff160361057e576040517f08c379a000000000000000000000000000000000000000000000000000000000815260040161057590613385565b60405180910390fd5b8060028111156105915761059061271e565b5b60035f3373ffffffffffffffffffffffffffffffffffffffff1673ffffffffffffffffffffffffffffffffffffffff1681526020019081526020015f206004015f9054906101000a900460ff1660028111156105f0576105ef61271e565b5b14610630576040517f08c379a0000000000000000000000000000000000000000000000000000000008152600401610627906133ed565b60405180910390fd5b60015f81548092919061064290613438565b919050555060405180610140016040528060015481526020018681526020018981526020014281526020018881526020018760028111156106865761068561271e565b5b81526020018581526020018481526020018381526020015f151581525060045f60015481526020019081526020015f205f820151815f015560208201518160010190816106d3919061361c565b5060408201518160020190816106e9919061361c565b50606082015181600301556080820151816004019081610709919061361c565b5060a0820151816005015f6101000a81548160ff021916908360028111156107345761073361271e565b5b021790555060c0820151816006019080519060200190610755929190612437565b5060e0820151816007019080519060200190610772929190612437565b50610100820151816008019080519060200190610790929190612437565b50610120820151816009015f6101000a81548160ff0219169083151502179055509050507f9e91634be29c373e8ab551c0dbac2856c450232fdab72b185f03bd57619e2d366001548989896040516107eb94939291906136eb565b60405180910390a15050505050505050565b5f8073ffffffffffffffffffffffffffffffffffffffff1660035f3373ffffffffffffffffffffffffffffffffffffffff1673ffffffffffffffffffffffffffffffffffffffff1681526020019081526020015f206002015f9054906101000a900473ffffffffffffffffffffffffffffffffffffffff1673ffffffffffffffffffffffffffffffffffffffff16036108cb576040517f08c379a00000000000000000000000000000000000000000000000000000000081526004016108c290613385565b60405180910390fd5b8060028111156108de576108dd61271e565b5b60035f3373ffffffffffffffffffffffffffffffffffffffff1673ffffffffffffffffffffffffffffffffffffffff1681526020019081526020015f206004015f9054906101000a900460ff16600281111561093d5761093c61271e565b5b1461097d576040517f08c379a0000000000000000000000000000000000000000000000000000000008152600401610974906133ed565b60405180910390fd5b5f60045f8481526020019081526020015f2090505f815f0154036109d6576040517f08c379a00000000000000000000000000000000000000000000000000000000081526004016109cd90613786565b60405180910390fd5b806009015f9054906101000a900460ff1615610a27576040517f08c379a0000000000000000000000000000000000000000000000000000000008152600401610a1e906137ee565b60405180910390fd5b6001816009015f6101000a81548160ff0219169083151502179055507f9d80387d31123dbcc3f16d095d996aa10533e74066b1d66d00200d296af2875983604051610a729190613081565b60405180910390a1505050565b610a8761248e565b5f60045f8481526020019081526020015f205f015403610adc576040517f08c379a0000000000000000000000000000000000000000000000000000000008152600401610ad390613786565b60405180910390fd5b60045f8381526020019081526020015f20604051806101400160405290815f8201548152602001600182018054610b129061330b565b80601f0160208091040260200160405190810160405280929190818152602001828054610b3e9061330b565b8015610b895780601f10610b6057610100808354040283529160200191610b89565b820191905f5260205f20905b815481529060010190602001808311610b6c57829003601f168201915b50505050508152602001600282018054610ba29061330b565b80601f0160208091040260200160405190810160405280929190818152602001828054610bce9061330b565b8015610c195780601f10610bf057610100808354040283529160200191610c19565b820191905f5260205f20905b815481529060010190602001808311610bfc57829003601f168201915b5050505050815260200160038201548152602001600482018054610c3c9061330b565b80601f0160208091040260200160405190810160405280929190818152602001828054610c689061330b565b8015610cb35780601f10610c8a57610100808354040283529160200191610cb3565b820191905f5260205f20905b815481529060010190602001808311610c9657829003601f168201915b50505050508152602001600582015f9054906101000a900460ff166002811115610ce057610cdf61271e565b5b6002811115610cf257610cf161271e565b5b815260200160068201805480602002602001604051908101604052809291908181526020015f905b82821015610dc2578382905f5260205f20018054610d379061330b565b80601f0160208091040260200160405190810160405280929190818152602001828054610d639061330b565b8015610dae5780601f10610d8557610100808354040283529160200191610dae565b820191905f5260205f20905b815481529060010190602001808311610d9157829003601f168201915b505050505081526020019060010190610d1a565b50505050815260200160078201805480602002602001604051908101604052809291908181526020015f905b82821015610e96578382905f5260205f20018054610e0b9061330b565b80601f0160208091040260200160405190810160405280929190818152602001828054610e379061330b565b8015610e825780601f10610e5957610100808354040283529160200191610e82565b820191905f5260205f20905b815481529060010190602001808311610e6557829003601f168201915b505050505081526020019060010190610dee565b50505050815260200160088201805480602002602001604051908101604052809291908181526020015f905b82821015610f6a578382905f5260205f20018054610edf9061330b565b80601f0160208091040260200160405190810160405280929190818152602001828054610f0b9061330b565b8015610f565780601f10610f2d57610100808354040283529160200191610f56565b820191905f5260205f20905b815481529060010190602001808311610f3957829003601f168201915b505050505081526020019060010190610ec2565b505050508152602001600982015f9054906101000a900460ff1615151515815250509050919050565b60025f73ffffffffffffffffffffffffffffffffffffffff1660035f3373ffffffffffffffffffffffffffffffffffffffff1673ffffffffffffffffffffffffffffffffffffffff1681526020019081526020015f206002015f9054906101000a900473ffffffffffffffffffffffffffffffffffffffff1673ffffffffffffffffffffffffffffffffffffffff1603611062576040517f08c379a000000000000000000000000000000000000000000000000000000000815260040161105990613385565b60405180910390fd5b8060028111156110755761107461271e565b5b60035f3373ffffffffffffffffffffffffffffffffffffffff1673ffffffffffffffffffffffffffffffffffffffff1681526020019081526020015f206004015f9054906101000a900460ff1660028111156110d4576110d361271e565b5b14611114576040517f08c379a000000000000000000000000000000000000000000000000000000000815260040161110b906133ed565b60405180910390fd5b5f73ffffffffffffffffffffffffffffffffffffffff1660035f8873ffffffffffffffffffffffffffffffffffffffff1673ffffffffffffffffffffffffffffffffffffffff1681526020019081526020015f206002015f9054906101000a900473ffffffffffffffffffffffffffffffffffffffff1673ffffffffffffffffffffffffffffffffffffffff16146111e1576040517f08c379a00000000000000000000000000000000000000000000000000000000081526004016111d890613856565b60405180910390fd5b6040518060a001604052808681526020018581526020018773ffffffffffffffffffffffffffffffffffffffff16815260200184815260200183600281111561122d5761122c61271e565b5b81525060035f8873ffffffffffffffffffffffffffffffffffffffff1673ffffffffffffffffffffffffffffffffffffffff1681526020019081526020015f205f820151815f019081611280919061361c565b506020820151816001019081611296919061361c565b506040820151816002015f6101000a81548173ffffffffffffffffffffffffffffffffffffffff021916908373ffffffffffffffffffffffffffffffffffffffff16021790555060608201518160030190816112f2919061361c565b506080820151816004015f6101000a81548160ff0219169083600281111561131d5761131c61271e565b5b0217905550905050505050505050565b6003602052805f5260405f205f91509050805f01805461134c9061330b565b80601f01602080910402602001604051908101604052809291908181526020018280546113789061330b565b80156113c35780601f1061139a576101008083540402835291602001916113c3565b820191905f5260205f20905b8154815290600101906020018083116113a657829003601f168201915b5050505050908060010180546113d89061330b565b80601f01602080910402602001604051908101604052809291908181526020018280546114049061330b565b801561144f5780601f106114265761010080835404028352916020019161144f565b820191905f5260205f20905b81548152906001019060200180831161143257829003601f168201915b505050505090806002015f9054906101000a900473ffffffffffffffffffffffffffffffffffffffff16908060030180546114899061330b565b80601f01602080910402602001604051908101604052809291908181526020018280546114b59061330b565b80156115005780601f106114d757610100808354040283529160200191611500565b820191905f5260205f20905b8154815290600101906020018083116114e357829003601f168201915b505050505090806004015f9054906101000a900460ff16905085565b6002602052805f5260405f205f91509050805f01805461153b9061330b565b80601f01602080910402602001604051908101604052809291908181526020018280546115679061330b565b80156115b25780601f10611589576101008083540402835291602001916115b2565b820191905f5260205f20905b81548152906001019060200180831161159557829003601f168201915b5050505050908060010180546115c79061330b565b80601f01602080910402602001604051908101604052809291908181526020018280546115f39061330b565b801561163e5780601f106116155761010080835404028352916020019161163e565b820191905f5260205f20905b81548152906001019060200180831161162157829003601f168201915b505050505090806002015f9054906101000a900473ffffffffffffffffffffffffffffffffffffffff16908060030180546116789061330b565b80601f01602080910402602001604051908101604052809291908181526020018280546116a49061330b565b80156116ef5780601f106116c6576101008083540402835291602001916116ef565b820191905f5260205f20905b8154815290600101906020018083116116d257829003601f168201915b505050505090806004015f9054906101000a900460ff16905085565b5f8054906101000a900473ffffffffffffffffffffffffffffffffffffffff1673ffffffffffffffffffffffffffffffffffffffff163373ffffffffffffffffffffffffffffffffffffffff1614611798576040517f08c379a000000000000000000000000000000000000000000000000000000000815260040161178f906138e4565b60405180910390fd5b5f73ffffffffffffffffffffffffffffffffffffffff1660035f8773ffffffffffffffffffffffffffffffffffffffff1673ffffffffffffffffffffffffffffffffffffffff1681526020019081526020015f206002015f9054906101000a900473ffffffffffffffffffffffffffffffffffffffff1673ffffffffffffffffffffffffffffffffffffffff1614611865576040517f08c379a000000000000000000000000000000000000000000000000000000000815260040161185c90613856565b60405180910390fd5b6040518060a001604052808581526020018481526020018673ffffffffffffffffffffffffffffffffffffffff1681526020018381526020018260028111156118b1576118b061271e565b5b81525060035f8773ffffffffffffffffffffffffffffffffffffffff1673ffffffffffffffffffffffffffffffffffffffff1681526020019081526020015f205f820151815f019081611904919061361c565b50602082015181600101908161191a919061361c565b506040820151816002015f6101000a81548173ffffffffffffffffffffffffffffffffffffffff021916908373ffffffffffffffffffffffffffffffffffffffff1602179055506060820151816003019081611976919061361c565b506080820151816004015f6101000a81548160ff021916908360028111156119a1576119a061271e565b5b02179055509050505050505050565b60015481565b6119be6124f1565b5f73ffffffffffffffffffffffffffffffffffffffff1660025f8473ffffffffffffffffffffffffffffffffffffffff1673ffffffffffffffffffffffffffffffffffffffff1681526020019081526020015f206002015f9054906101000a900473ffffffffffffffffffffffffffffffffffffffff1673ffffffffffffffffffffffffffffffffffffffff1603611a8b576040517f08c379a0000000000000000000000000000000000000000000000000000000008152600401611a829061394c565b60405180910390fd5b60025f8373ffffffffffffffffffffffffffffffffffffffff1673ffffffffffffffffffffffffffffffffffffffff1681526020019081526020015f206040518060a00160405290815f82018054611ae29061330b565b80601f0160208091040260200160405190810160405280929190818152602001828054611b0e9061330b565b8015611b595780601f10611b3057610100808354040283529160200191611b59565b820191905f5260205f20905b815481529060010190602001808311611b3c57829003601f168201915b50505050508152602001600182018054611b729061330b565b80601f0160208091040260200160405190810160405280929190818152602001828054611b9e9061330b565b8015611be95780601f10611bc057610100808354040283529160200191611be9565b820191905f5260205f20905b815481529060010190602001808311611bcc57829003601f168201915b50505050508152602001600282015f9054906101000a900473ffffffffffffffffffffffffffffffffffffffff1673ffffffffffffffffffffffffffffffffffffffff1673ffffffffffffffffffffffffffffffffffffffff168152602001600382018054611c579061330b565b80601f0160208091040260200160405190810160405280929190818152602001828054611c839061330b565b8015611cce5780601f10611ca557610100808354040283529160200191611cce565b820191905f5260205f20905b815481529060010190602001808311611cb157829003601f168201915b50505050508152602001600482015f9054906101000a900460ff166002811115611cfb57611cfa61271e565b5b6002811115611d0d57611d0c61271e565b5b815250509050919050565b611d20612546565b5f73ffffffffffffffffffffffffffffffffffffffff1660035f8473ffffffffffffffffffffffffffffffffffffffff1673ffffffffffffffffffffffffffffffffffffffff1681526020019081526020015f206002015f9054906101000a900473ffffffffffffffffffffffffffffffffffffffff1673ffffffffffffffffffffffffffffffffffffffff1603611ded576040517f08c379a0000000000000000000000000000000000000000000000000000000008152600401611de4906139b4565b60405180910390fd5b60035f8373ffffffffffffffffffffffffffffffffffffffff1673ffffffffffffffffffffffffffffffffffffffff1681526020019081526020015f206040518060a00160405290815f82018054611e449061330b565b80601f0160208091040260200160405190810160405280929190818152602001828054611e709061330b565b8015611ebb5780601f10611e9257610100808354040283529160200191611ebb565b820191905f5260205f20905b815481529060010190602001808311611e9e57829003601f168201915b50505050508152602001600182018054611ed49061330b565b80601f0160208091040260200160405190810160405280929190818152602001828054611f009061330b565b8015611f4b5780601f10611f2257610100808354040283529160200191611f4b565b820191905f5260205f20905b815481529060010190602001808311611f2e57829003601f168201915b50505050508152602001600282015f9054906101000a900473ffffffffffffffffffffffffffffffffffffffff1673ffffffffffffffffffffffffffffffffffffffff1673ffffffffffffffffffffffffffffffffffffffff168152602001600382018054611fb99061330b565b80601f0160208091040260200160405190810160405280929190818152602001828054611fe59061330b565b80156120305780601f1061200757610100808354040283529160200191612030565b820191905f5260205f20905b81548152906001019060200180831161201357829003601f168201915b50505050508152602001600482015f9054906101000a900460ff16600281111561205d5761205c61271e565b5b600281111561206f5761206e61271e565b5b815250509050919050565b60025f73ffffffffffffffffffffffffffffffffffffffff1660035f3373ffffffffffffffffffffffffffffffffffffffff1673ffffffffffffffffffffffffffffffffffffffff1681526020019081526020015f206002015f9054906101000a900473ffffffffffffffffffffffffffffffffffffffff1673ffffffffffffffffffffffffffffffffffffffff1603612149576040517f08c379a000000000000000000000000000000000000000000000000000000000815260040161214090613385565b60405180910390fd5b80600281111561215c5761215b61271e565b5b60035f3373ffffffffffffffffffffffffffffffffffffffff1673ffffffffffffffffffffffffffffffffffffffff1681526020019081526020015f206004015f9054906101000a900460ff1660028111156121bb576121ba61271e565b5b146121fb576040517f08c379a00000000000000000000000000000000000000000000000000000000081526004016121f2906133ed565b60405180910390fd5b5f73ffffffffffffffffffffffffffffffffffffffff1660025f8873ffffffffffffffffffffffffffffffffffffffff1673ffffffffffffffffffffffffffffffffffffffff1681526020019081526020015f206002015f9054906101000a900473ffffffffffffffffffffffffffffffffffffffff1673ffffffffffffffffffffffffffffffffffffffff16146122c8576040517f08c379a00000000000000000000000000000000000000000000000000000000081526004016122bf90613a1c565b60405180910390fd5b6040518060a001604052808681526020018581526020018773ffffffffffffffffffffffffffffffffffffffff1681526020018481526020018360028111156123145761231361271e565b5b81525060025f8873ffffffffffffffffffffffffffffffffffffffff1673ffffffffffffffffffffffffffffffffffffffff1681526020019081526020015f205f820151815f019081612367919061361c565b50602082015181600101908161237d919061361c565b506040820151816002015f6101000a81548173ffffffffffffffffffffffffffffffffffffffff021916908373ffffffffffffffffffffffffffffffffffffffff16021790555060608201518160030190816123d9919061361c565b506080820151816004015f6101000a81548160ff021916908360028111156124045761240361271e565b5b0217905550905050505050505050565b5f8054906101000a900473ffffffffffffffffffffffffffffffffffffffff1681565b828054828255905f5260205f2090810192821561247d579160200282015b8281111561247c57825182908161246c919061361c565b5091602001919060010190612455565b5b50905061248a919061259b565b5090565b6040518061014001604052805f815260200160608152602001606081526020015f8152602001606081526020015f60028111156124ce576124cd61271e565b5b81526020016060815260200160608152602001606081526020015f151581525090565b6040518060a0016040528060608152602001606081526020015f73ffffffffffffffffffffffffffffffffffffffff168152602001606081526020015f60028111156125405761253f61271e565b5b81525090565b6040518060a0016040528060608152602001606081526020015f73ffffffffffffffffffffffffffffffffffffffff168152602001606081526020015f60028111156125955761259461271e565b5b81525090565b5b808211156125ba575f81816125b191906125be565b5060010161259c565b5090565b5080546125ca9061330b565b5f825580601f106125db57506125f8565b601f0160209004905f5260205f20908101906125f791906125fb565b5b50565b5b80821115612612575f815f9055506001016125fc565b5090565b5f604051905090565b5f80fd5b5f80fd5b5f819050919050565b61263981612627565b8114612643575f80fd5b50565b5f8135905061265481612630565b92915050565b5f6020828403121561266f5761266e61261f565b5b5f61267c84828501612646565b91505092915050565b61268e81612627565b82525050565b5f81519050919050565b5f82825260208201905092915050565b5f5b838110156126cb5780820151818401526020810190506126b0565b5f8484015250505050565b5f601f19601f8301169050919050565b5f6126f082612694565b6126fa818561269e565b935061270a8185602086016126ae565b612713816126d6565b840191505092915050565b7f4e487b71000000000000000000000000000000000000000000000000000000005f52602160045260245ffd5b6003811061275c5761275b61271e565b5b50565b5f81905061276c8261274b565b919050565b5f61277b8261275f565b9050919050565b61278b81612771565b82525050565b5f8115159050919050565b6127a581612791565b82525050565b5f60e0820190506127be5f83018a612685565b81810360208301526127d081896126e6565b905081810360408301526127e481886126e6565b90506127f36060830187612685565b818103608083015261280581866126e6565b905061281460a0830185612782565b61282160c083018461279c565b98975050505050505050565b5f80fd5b5f80fd5b7f4e487b71000000000000000000000000000000000000000000000000000000005f52604160045260245ffd5b61286b826126d6565b810181811067ffffffffffffffff8211171561288a57612889612835565b5b80604052505050565b5f61289c612616565b90506128a88282612862565b919050565b5f67ffffffffffffffff8211156128c7576128c6612835565b5b6128d0826126d6565b9050602081019050919050565b828183375f83830152505050565b5f6128fd6128f8846128ad565b612893565b90508281526020810184848401111561291957612918612831565b5b6129248482856128dd565b509392505050565b5f82601f8301126129405761293f61282d565b5b81356129508482602086016128eb565b91505092915050565b60038110612965575f80fd5b50565b5f8135905061297681612959565b92915050565b5f67ffffffffffffffff82111561299657612995612835565b5b602082029050602081019050919050565b5f80fd5b5f6129bd6129b88461297c565b612893565b905080838252602082019050602084028301858111156129e0576129df6129a7565b5b835b81811015612a2757803567ffffffffffffffff811115612a0557612a0461282d565b5b808601612a12898261292c565b855260208501945050506020810190506129e2565b5050509392505050565b5f82601f830112612a4557612a4461282d565b5b8135612a558482602086016129ab565b91505092915050565b5f805f805f805f60e0888a031215612a7957612a7861261f565b5b5f88013567ffffffffffffffff811115612a9657612a95612623565b5b612aa28a828b0161292c565b975050602088013567ffffffffffffffff811115612ac357612ac2612623565b5b612acf8a828b0161292c565b9650506040612ae08a828b01612968565b955050606088013567ffffffffffffffff811115612b0157612b00612623565b5b612b0d8a828b0161292c565b945050608088013567ffffffffffffffff811115612b2e57612b2d612623565b5b612b3a8a828b01612a31565b93505060a088013567ffffffffffffffff811115612b5b57612b5a612623565b5b612b678a828b01612a31565b92505060c088013567ffffffffffffffff811115612b8857612b87612623565b5b612b948a828b01612a31565b91505092959891949750929550565b612bac81612627565b82525050565b5f82825260208201905092915050565b5f612bcc82612694565b612bd68185612bb2565b9350612be68185602086016126ae565b612bef816126d6565b840191505092915050565b612c0381612771565b82525050565b5f81519050919050565b5f82825260208201905092915050565b5f819050602082019050919050565b5f612c3d8383612bc2565b905092915050565b5f602082019050919050565b5f612c5b82612c09565b612c658185612c13565b935083602082028501612c7785612c23565b805f5b85811015612cb25784840389528151612c938582612c32565b9450612c9e83612c45565b925060208a01995050600181019050612c7a565b50829750879550505050505092915050565b612ccd81612791565b82525050565b5f61014083015f830151612ce95f860182612ba3565b5060208301518482036020860152612d018282612bc2565b91505060408301518482036040860152612d1b8282612bc2565b9150506060830151612d306060860182612ba3565b5060808301518482036080860152612d488282612bc2565b91505060a0830151612d5d60a0860182612bfa565b5060c083015184820360c0860152612d758282612c51565b91505060e083015184820360e0860152612d8f8282612c51565b915050610100830151848203610100860152612dab8282612c51565b915050610120830151612dc2610120860182612cc4565b508091505092915050565b5f6020820190508181035f830152612de58184612cd3565b905092915050565b5f73ffffffffffffffffffffffffffffffffffffffff82169050919050565b5f612e1682612ded565b9050919050565b612e2681612e0c565b8114612e30575f80fd5b50565b5f81359050612e4181612e1d565b92915050565b60038110612e53575f80fd5b50565b5f81359050612e6481612e47565b92915050565b5f805f805f60a08688031215612e8357612e8261261f565b5b5f612e9088828901612e33565b955050602086013567ffffffffffffffff811115612eb157612eb0612623565b5b612ebd8882890161292c565b945050604086013567ffffffffffffffff811115612ede57612edd612623565b5b612eea8882890161292c565b935050606086013567ffffffffffffffff811115612f0b57612f0a612623565b5b612f178882890161292c565b9250506080612f2888828901612e56565b9150509295509295909350565b5f60208284031215612f4a57612f4961261f565b5b5f612f5784828501612e33565b91505092915050565b612f6981612e0c565b82525050565b60038110612f8057612f7f61271e565b5b50565b5f819050612f9082612f6f565b919050565b5f612f9f82612f83565b9050919050565b612faf81612f95565b82525050565b5f60a0820190508181035f830152612fcd81886126e6565b90508181036020830152612fe181876126e6565b9050612ff06040830186612f60565b818103606083015261300281856126e6565b90506130116080830184612fa6565b9695505050505050565b5f60a0820190508181035f83015261303381886126e6565b9050818103602083015261304781876126e6565b90506130566040830186612f60565b818103606083015261306881856126e6565b90506130776080830184612782565b9695505050505050565b5f6020820190506130945f830184612685565b92915050565b6130a381612e0c565b82525050565b5f60a083015f8301518482035f8601526130c38282612bc2565b915050602083015184820360208601526130dd8282612bc2565b91505060408301516130f2604086018261309a565b506060830151848203606086015261310a8282612bc2565b915050608083015161311f6080860182612bfa565b508091505092915050565b5f6020820190508181035f83015261314281846130a9565b905092915050565b61315381612f95565b82525050565b5f60a083015f8301518482035f8601526131738282612bc2565b9150506020830151848203602086015261318d8282612bc2565b91505060408301516131a2604086018261309a565b50606083015184820360608601526131ba8282612bc2565b91505060808301516131cf608086018261314a565b508091505092915050565b5f6020820190508181035f8301526131f28184613159565b905092915050565b5f805f805f60a086880312156132135761321261261f565b5b5f61322088828901612e33565b955050602086013567ffffffffffffffff81111561324157613240612623565b5b61324d8882890161292c565b945050604086013567ffffffffffffffff81111561326e5761326d612623565b5b61327a8882890161292c565b935050606086013567ffffffffffffffff81111561329b5761329a612623565b5b6132a78882890161292c565b92505060806132b888828901612968565b9150509295509295909350565b5f6020820190506132d85f830184612f60565b92915050565b7f4e487b71000000000000000000000000000000000000000000000000000000005f52602260045260245ffd5b5f600282049050600182168061332257607f821691505b602082108103613335576133346132de565b5b50919050565b7f55736572206973206e6f742072656769737465726564000000000000000000005f82015250565b5f61336f60168361269e565b915061337a8261333b565b602082019050919050565b5f6020820190508181035f83015261339c81613363565b9050919050565b7f5573657220726f6c65206d69736d6174636800000000000000000000000000005f82015250565b5f6133d760128361269e565b91506133e2826133a3565b602082019050919050565b5f6020820190508181035f830152613404816133cb565b9050919050565b7f4e487b71000000000000000000000000000000000000000000000000000000005f52601160045260245ffd5b5f61344282612627565b91507fffffffffffffffffffffffffffffffffffffffffffffffffffffffffffffffff82036134745761347361340b565b5b600182019050919050565b5f819050815f5260205f209050919050565b5f6020601f8301049050919050565b5f82821b905092915050565b5f600883026134db7fffffffffffffffffffffffffffffffffffffffffffffffffffffffffffffffff826134a0565b6134e586836134a0565b95508019841693508086168417925050509392505050565b5f819050919050565b5f61352061351b61351684612627565b6134fd565b612627565b9050919050565b5f819050919050565b61353983613506565b61354d61354582613527565b8484546134ac565b825550505050565b5f90565b613561613555565b61356c818484613530565b505050565b5b8181101561358f576135845f82613559565b600181019050613572565b5050565b601f8211156135d4576135a58161347f565b6135ae84613491565b810160208510156135bd578190505b6135d16135c985613491565b830182613571565b50505b505050565b5f82821c905092915050565b5f6135f45f19846008026135d9565b1980831691505092915050565b5f61360c83836135e5565b9150826002028217905092915050565b61362582612694565b67ffffffffffffffff81111561363e5761363d612835565b5b613648825461330b565b613653828285613593565b5f60209050601f831160018114613684575f8415613672578287015190505b61367c8582613601565b8655506136e3565b601f1984166136928661347f565b5f5b828110156136b957848901518255600182019150602085019450602081019050613694565b868310156136d657848901516136d2601f8916826135e5565b8355505b6001600288020188555050505b505050505050565b5f6080820190506136fe5f830187612685565b818103602083015261371081866126e6565b9050818103604083015261372481856126e6565b90506137336060830184612782565b95945050505050565b7f507265736372697074696f6e20646f6573206e6f7420657869737400000000005f82015250565b5f613770601b8361269e565b915061377b8261373c565b602082019050919050565b5f6020820190508181035f83015261379d81613764565b9050919050565b7f507265736372697074696f6e20616c72656164792066756c66696c6c656400005f82015250565b5f6137d8601e8361269e565b91506137e3826137a4565b602082019050919050565b5f6020820190508181035f830152613805816137cc565b9050919050565b7f5573657220616c726561647920657869737473000000000000000000000000005f82015250565b5f61384060138361269e565b915061384b8261380c565b602082019050919050565b5f6020820190508181035f83015261386d81613834565b9050919050565b7f4f6e6c792061646d696e2063616e20706572666f726d207468697320616374695f8201527f6f6e000000000000000000000000000000000000000000000000000000000000602082015250565b5f6138ce60228361269e565b91506138d982613874565b604082019050919050565b5f6020820190508181035f8301526138fb816138c2565b9050919050565b7f446f63746f7220646f6573206e6f7420657869737400000000000000000000005f82015250565b5f61393660158361269e565b915061394182613902565b602082019050919050565b5f6020820190508181035f8301526139638161392a565b9050919050565b7f5573657220646f6573206e6f74206578697374000000000000000000000000005f82015250565b5f61399e60138361269e565b91506139a98261396a565b602082019050919050565b5f6020820190508181035f8301526139cb81613992565b9050919050565b7f446f63746f7220616c72656164792065786973747300000000000000000000005f82015250565b5f613a0660158361269e565b9150613a11826139d2565b602082019050919050565b5f6020820190508181035f830152613a33816139fa565b905091905056fea2646970667358221220bcefff0e0e89f0ddb8ba67f68b969ecd77257ea868ee4ee7d0ba8ab8b629726364736f6c63430008150033",
  "immutableReferences": {},
  "source": "// SPDX-License-Identifier: MIT\r\npragma solidity ^0.8.21;\r\n\r\ncontract Hospital  {\r\n    enum Dept { Cardiology, Psychiatry, General }\r\n    enum Role { Pharmacy, Receptionist, Hospital } \r\n\r\n    struct Doctor {\r\n        string id;   \r\n        string hospital;             // MongoDB _id reference\r\n        address doctorAddress;    \r\n        string verificationHash;\r\n        Dept dept;                // Department of the doctor\r\n    }\r\n\r\n    struct User {                 // Combined struct for Pharmacy and Receptionist\r\n        string id;   \r\n        string name;             // MongoDB _id reference\r\n        address userAddress;\r\n        string verificationHash;\r\n        Role role;                // Role (Pharmacy or Receptionist)\r\n    }\r\n\r\n    struct Prescription {\r\n        uint256 prescriptionId;\r\n        string hospital;  \r\n        string userId;            // Acts as a unique id from MongoDB\r\n        uint256 timestamp;        // Prescription creation timestamp\r\n        string description;       // Prescription description\r\n        Dept dept;\r\n        string[] medicines;       // List of medicines\r\n        string[] documents;       // Related documents\r\n        string[] allergies;       // Allergies information\r\n        bool isFulfilled;         // Status if the prescription has been fulfilled\r\n    }\r\n\r\n    address public admin;                        // Hospital admin\r\n    uint256 public prescriptionCount = 0;        // Count of prescriptions\r\n    mapping(address => Doctor) public doctors;   // Mapping for doctors\r\n    mapping(address => User) public users;       // Mapping for pharmacies, receptionists and Hospitals (combined into 'users')\r\n    mapping(uint256 => Prescription) public prescriptions; // Mapping for prescriptions\r\n\r\n    event PrescriptionCreated(uint256 prescriptionId, string userId, string description, Dept dept);\r\n    event PrescriptionFulfilled(uint256 prescriptionId);\r\n\r\n    modifier onlyAdmin() {\r\n        require(msg.sender == admin, \"Only admin can perform this action\");\r\n        _;\r\n    }\r\n\r\n    modifier onlyVerifiedDoctor() {\r\n        require(doctors[msg.sender].doctorAddress != address(0), \"User is not a verified doctor\");\r\n        _;\r\n    }\r\n\r\n    modifier onlyVerifiedUser(Role _role) {\r\n        require(users[msg.sender].userAddress != address(0), \"User is not registered\");\r\n        require(users[msg.sender].role == _role, \"User role mismatch\");\r\n        _;\r\n    }\r\n\r\n    constructor() {\r\n        admin = msg.sender;\r\n    }\r\n\r\n    // Register Hospital and Pharmacy\r\n    function registerFields(\r\n        address _userAddress, \r\n        string memory _id, \r\n        string memory name,\r\n        string memory _verificationHash, \r\n        Role _role\r\n    ) public onlyAdmin {\r\n        require(users[_userAddress].userAddress == address(0), \"User already exists\");\r\n\r\n        users[_userAddress] = User({\r\n            id: _id,\r\n            name: name,\r\n            userAddress: _userAddress,\r\n            verificationHash: _verificationHash,\r\n            role: _role\r\n        });\r\n    }\r\n\r\n    // Register a doctor\r\n    function registerDoctor(\r\n        address _doctorAddress, \r\n        string memory _id, \r\n        string memory _hospital,\r\n        string memory _verificationHash, \r\n        Dept _dept\r\n    ) public onlyVerifiedUser(Role.Hospital) {\r\n        require(doctors[_doctorAddress].doctorAddress == address(0), \"Doctor already exists\");\r\n\r\n        doctors[_doctorAddress] = Doctor({\r\n            id: _id,\r\n            hospital: _hospital,\r\n            doctorAddress: _doctorAddress,\r\n            verificationHash: _verificationHash,\r\n            dept: _dept\r\n        });\r\n    }\r\n\r\n    //register Receptionist\r\n    function registerReceptionist(\r\n        address _userAddress, \r\n        string memory _id, \r\n        string memory name,\r\n        string memory _verificationHash, \r\n        Role _role\r\n    ) public onlyVerifiedUser(Role.Hospital)  {\r\n        require(users[_userAddress].userAddress == address(0), \"User already exists\");\r\n\r\n        users[_userAddress] = User({\r\n            id: _id,\r\n            name: name,\r\n            userAddress: _userAddress,\r\n            verificationHash: _verificationHash,\r\n            role: _role\r\n        });\r\n    }\r\n\r\n    // Get doctor details\r\n    function getDoctorDetails(address _doctorAddress) public view returns (Doctor memory) {\r\n        require(doctors[_doctorAddress].doctorAddress != address(0), \"Doctor does not exist\");\r\n        return doctors[_doctorAddress];\r\n    }\r\n\r\n    // Get user details\r\n    function getUserDetails(address _userAddress) public view returns (User memory) {\r\n        require(users[_userAddress].userAddress != address(0), \"User does not exist\");\r\n        return users[_userAddress];\r\n    }\r\n\r\n    // Receptionist creates or updates a prescription\r\n    function createPrescription(\r\n        string memory _userId, \r\n        string memory _description, \r\n        Dept _dept,\r\n        string memory _hospitalName,\r\n        string[] memory _medicines, \r\n        string[] memory _documents, \r\n        string[] memory _allergies\r\n    ) public onlyVerifiedUser(Role.Receptionist) {\r\n        prescriptionCount++;\r\n        prescriptions[prescriptionCount] = Prescription({\r\n            prescriptionId: prescriptionCount,\r\n            hospital: _hospitalName,\r\n            userId: _userId,\r\n            timestamp: block.timestamp,\r\n            description: _description,\r\n            dept: _dept,\r\n            medicines: _medicines,\r\n            documents: _documents,\r\n            allergies: _allergies,\r\n            isFulfilled: false\r\n        });\r\n        emit PrescriptionCreated(prescriptionCount, _userId, _description, _dept);\r\n    }\r\n\r\n    // Pharmacy fulfills a prescription\r\n    function fulfillPrescription(uint256 _prescriptionId) public onlyVerifiedUser(Role.Pharmacy) {\r\n        Prescription storage prescription = prescriptions[_prescriptionId];\r\n        require(prescription.prescriptionId != 0, \"Prescription does not exist\");\r\n        require(!prescription.isFulfilled, \"Prescription already fulfilled\");\r\n\r\n        prescription.isFulfilled = true;\r\n        emit PrescriptionFulfilled(_prescriptionId);\r\n    }\r\n\r\n    // Get prescription details by ID\r\n    function getPrescription(uint256 _prescriptionId) public view returns (Prescription memory) {\r\n        require(prescriptions[_prescriptionId].prescriptionId != 0, \"Prescription does not exist\");\r\n        return prescriptions[_prescriptionId];\r\n    }\r\n}",
  "sourcePath": "C:\\CODING\\Hack Summit\\Hack-Summit-5.O\\contracts\\Hospital.sol",
  "compiler": {
    "name": "solc",
    "version": "0.8.21+commit.d9974bed.Emscripten.clang"
  },
  "schemaVersion": "3.4.16",
  "updatedAt": "2024-10-25T11:46:44.221Z",
  "networkType": "ethereum",
  "devdoc": {
    "kind": "dev",
    "methods": {},
    "version": 1
  },
  "userdoc": {
    "kind": "user",
    "methods": {},
    "version": 1
  }
}